{
  "contractName": "Allowance",
  "abi": [
    {
      "anonymous": false,
      "inputs": [
        {
          "indexed": true,
          "internalType": "address",
          "name": "_to",
          "type": "address"
        },
        {
          "indexed": true,
          "internalType": "address",
          "name": "_from",
          "type": "address"
        },
        {
          "indexed": false,
          "internalType": "uint256",
          "name": "_currentAmount",
          "type": "uint256"
        },
        {
          "indexed": false,
          "internalType": "uint256",
          "name": "_amount",
          "type": "uint256"
        }
      ],
      "name": "AllowanceChanged",
      "type": "event"
    },
    {
      "anonymous": false,
      "inputs": [
        {
          "indexed": true,
          "internalType": "address",
          "name": "previousOwner",
          "type": "address"
        },
        {
          "indexed": true,
          "internalType": "address",
          "name": "newOwner",
          "type": "address"
        }
      ],
      "name": "OwnershipTransferred",
      "type": "event"
    },
    {
      "inputs": [
        {
          "internalType": "address",
          "name": "",
          "type": "address"
        }
      ],
      "name": "allowance",
      "outputs": [
        {
          "internalType": "uint256",
          "name": "",
          "type": "uint256"
        }
      ],
      "stateMutability": "view",
      "type": "function",
      "constant": true
    },
    {
      "inputs": [],
      "name": "owner",
      "outputs": [
        {
          "internalType": "address",
          "name": "",
          "type": "address"
        }
      ],
      "stateMutability": "view",
      "type": "function",
      "constant": true
    },
    {
      "inputs": [],
      "name": "renounceOwnership",
      "outputs": [],
      "stateMutability": "nonpayable",
      "type": "function"
    },
    {
      "inputs": [
        {
          "internalType": "address",
          "name": "newOwner",
          "type": "address"
        }
      ],
      "name": "transferOwnership",
      "outputs": [],
      "stateMutability": "nonpayable",
      "type": "function"
    },
    {
      "inputs": [
        {
          "internalType": "address",
          "name": "_to",
          "type": "address"
        },
        {
          "internalType": "uint256",
          "name": "_amount",
          "type": "uint256"
        }
      ],
      "name": "setAllowance",
      "outputs": [],
      "stateMutability": "nonpayable",
      "type": "function"
    }
  ],
  "bytecode": "0x608060405234801561001057600080fd5b5060006100216100c460201b60201c565b9050806000806101000a81548173ffffffffffffffffffffffffffffffffffffffff021916908373ffffffffffffffffffffffffffffffffffffffff1602179055508073ffffffffffffffffffffffffffffffffffffffff16600073ffffffffffffffffffffffffffffffffffffffff167f8be0079c531659141344cd1fd0a4f28419497f9722a3daafe3b4186f6b6457e060405160405180910390a3506100cc565b600033905090565b610917806100db6000396000f3fe608060405234801561001057600080fd5b50600436106100575760003560e01c8063310ec4a71461005c5780633e5beab914610078578063715018a6146100a85780638da5cb5b146100b2578063f2fde38b146100d0575b600080fd5b61007660048036038101906100719190610642565b6100ec565b005b610092600480360381019061008d9190610619565b6102ad565b60405161009f919061079d565b60405180910390f35b6100b06102c5565b005b6100ba6103ff565b6040516100c79190610742565b60405180910390f35b6100ea60048036038101906100e59190610619565b610428565b005b6100f46105d1565b73ffffffffffffffffffffffffffffffffffffffff166101126103ff565b73ffffffffffffffffffffffffffffffffffffffff1614610168576040517f08c379a000000000000000000000000000000000000000000000000000000000815260040161015f9061077d565b60405180910390fd5b6000600160008473ffffffffffffffffffffffffffffffffffffffff1673ffffffffffffffffffffffffffffffffffffffff1681526020019081526020016000205490506101fe82600160008673ffffffffffffffffffffffffffffffffffffffff1673ffffffffffffffffffffffffffffffffffffffff168152602001908152602001600020546105d990919063ffffffff16565b600160008573ffffffffffffffffffffffffffffffffffffffff1673ffffffffffffffffffffffffffffffffffffffff168152602001908152602001600020819055503373ffffffffffffffffffffffffffffffffffffffff168373ffffffffffffffffffffffffffffffffffffffff167f3691d1a86d99355e52b689ca70a7bdf6d80763237a6aa06e5fa43964eac7244b83856040516102a09291906107b8565b60405180910390a3505050565b60016020528060005260406000206000915090505481565b6102cd6105d1565b73ffffffffffffffffffffffffffffffffffffffff166102eb6103ff565b73ffffffffffffffffffffffffffffffffffffffff1614610341576040517f08c379a00000000000000000000000000000000000000000000000000000000081526004016103389061077d565b60405180910390fd5b600073ffffffffffffffffffffffffffffffffffffffff1660008054906101000a900473ffffffffffffffffffffffffffffffffffffffff1673ffffffffffffffffffffffffffffffffffffffff167f8be0079c531659141344cd1fd0a4f28419497f9722a3daafe3b4186f6b6457e060405160405180910390a360008060006101000a81548173ffffffffffffffffffffffffffffffffffffffff021916908373ffffffffffffffffffffffffffffffffffffffff160217905550565b60008060009054906101000a900473ffffffffffffffffffffffffffffffffffffffff16905090565b6104306105d1565b73ffffffffffffffffffffffffffffffffffffffff1661044e6103ff565b73ffffffffffffffffffffffffffffffffffffffff16146104a4576040517f08c379a000000000000000000000000000000000000000000000000000000000815260040161049b9061077d565b60405180910390fd5b600073ffffffffffffffffffffffffffffffffffffffff168173ffffffffffffffffffffffffffffffffffffffff161415610514576040517f08c379a000000000000000000000000000000000000000000000000000000000815260040161050b9061075d565b60405180910390fd5b8073ffffffffffffffffffffffffffffffffffffffff1660008054906101000a900473ffffffffffffffffffffffffffffffffffffffff1673ffffffffffffffffffffffffffffffffffffffff167f8be0079c531659141344cd1fd0a4f28419497f9722a3daafe3b4186f6b6457e060405160405180910390a3806000806101000a81548173ffffffffffffffffffffffffffffffffffffffff021916908373ffffffffffffffffffffffffffffffffffffffff16021790555050565b600033905090565b600081836105e791906107f2565b905092915050565b6000813590506105fe816108b3565b92915050565b600081359050610613816108ca565b92915050565b60006020828403121561062b57600080fd5b6000610639848285016105ef565b91505092915050565b6000806040838503121561065557600080fd5b6000610663858286016105ef565b925050602061067485828601610604565b9150509250929050565b61068781610848565b82525050565b600061069a6026836107e1565b91507f4f776e61626c653a206e6577206f776e657220697320746865207a65726f206160008301527f64647265737300000000000000000000000000000000000000000000000000006020830152604082019050919050565b60006107006020836107e1565b91507f4f776e61626c653a2063616c6c6572206973206e6f7420746865206f776e65726000830152602082019050919050565b61073c8161087a565b82525050565b6000602082019050610757600083018461067e565b92915050565b600060208201905081810360008301526107768161068d565b9050919050565b60006020820190508181036000830152610796816106f3565b9050919050565b60006020820190506107b26000830184610733565b92915050565b60006040820190506107cd6000830185610733565b6107da6020830184610733565b9392505050565b600082825260208201905092915050565b60006107fd8261087a565b91506108088361087a565b9250827fffffffffffffffffffffffffffffffffffffffffffffffffffffffffffffffff0382111561083d5761083c610884565b5b828201905092915050565b60006108538261085a565b9050919050565b600073ffffffffffffffffffffffffffffffffffffffff82169050919050565b6000819050919050565b7f4e487b7100000000000000000000000000000000000000000000000000000000600052601160045260246000fd5b6108bc81610848565b81146108c757600080fd5b50565b6108d38161087a565b81146108de57600080fd5b5056fea2646970667358221220738baa387b3d3705e7ffb75a5a83bf301aa8107d707dfe0b9a2d88130113537864736f6c63430008000033",
  "immutableReferences": {},
  "source": "// SPDX-License-Identifier: MIT\npragma solidity ^0.8.0;\n\nimport \"../node_modules/@openzeppelin/contracts/utils/math/SafeMath.sol\";\nimport \"../node_modules/@openzeppelin/contracts/access/Ownable.sol\";\n\ncontract Allowance is Ownable{\n  using SafeMath for uint;\n  mapping(address => uint) public allowance;\n\n event AllowanceChanged(address indexed _to, address indexed _from, uint _currentAmount, uint _amount);\n\n  function isOwner() internal view returns(bool){ \n     return  owner() == msg.sender;\n  }\n\n  modifier ownerOrAllowed(uint _amount) {\n    require(isOwner() || allowance[msg.sender] >= _amount, \"you are not the owner, or don't have the allowance\");\n    _;\n  }\n\n  function setAllowance(address _to, uint _amount) public onlyOwner {\n      uint currentAmount = allowance[_to];\n      allowance[_to] = allowance[_to].add(_amount);\n      emit AllowanceChanged(_to, msg.sender, currentAmount, _amount);\n  }\n\n  function reduceAllowance(address _to, uint _amount) internal ownerOrAllowed(_amount){\n    uint currentAmount = allowance[_to];\n    allowance[_to] = allowance[_to].sub(_amount);\n     emit AllowanceChanged(_to, msg.sender, currentAmount, _amount);\n  }\n\n}\n// contract.sendTransaction({from: accounts[1], value: web3.utils.toWei(\"1\", 'ether')})",
  "sourcePath": "/Users/fabriciopolicarpo/Desktop/Udemy/Blockchain/sharedWallet/contracts/Allowance.sol",
  "compiler": {
    "name": "solc",
    "version": "0.8.0+commit.c7dfd78e.Emscripten.clang"
  },
  "schemaVersion": "3.4.1",
  "updatedAt": "2021-05-22T03:41:41.267Z",
  "networkType": "ethereum",
  "devdoc": {
    "kind": "dev",
    "methods": {
      "owner()": {
        "details": "Returns the address of the current owner."
      },
      "renounceOwnership()": {
        "details": "Leaves the contract without owner. It will not be possible to call `onlyOwner` functions anymore. Can only be called by the current owner. NOTE: Renouncing ownership will leave the contract without an owner, thereby removing any functionality that is only available to the owner."
      },
      "transferOwnership(address)": {
        "details": "Transfers ownership of the contract to a new account (`newOwner`). Can only be called by the current owner."
      }
    },
    "version": 1
  },
  "userdoc": {
    "kind": "user",
    "methods": {},
    "version": 1
  }
}