{
  "contractName": "Allowance",
  "abi": [
    {
      "anonymous": false,
      "inputs": [
        {
          "indexed": true,
          "internalType": "address",
          "name": "_to",
          "type": "address"
        },
        {
          "indexed": true,
          "internalType": "address",
          "name": "_from",
          "type": "address"
        },
        {
          "indexed": false,
          "internalType": "uint256",
          "name": "_amount",
          "type": "uint256"
        }
      ],
      "name": "AllowanceChanged",
      "type": "event"
    },
    {
      "anonymous": false,
      "inputs": [
        {
          "indexed": true,
          "internalType": "address",
          "name": "previousOwner",
          "type": "address"
        },
        {
          "indexed": true,
          "internalType": "address",
          "name": "newOwner",
          "type": "address"
        }
      ],
      "name": "OwnershipTransferred",
      "type": "event"
    },
    {
      "inputs": [
        {
          "internalType": "address",
          "name": "",
          "type": "address"
        }
      ],
      "name": "allowance",
      "outputs": [
        {
          "internalType": "uint256",
          "name": "",
          "type": "uint256"
        }
      ],
      "stateMutability": "view",
      "type": "function",
      "constant": true
    },
    {
      "inputs": [],
      "name": "owner",
      "outputs": [
        {
          "internalType": "address",
          "name": "",
          "type": "address"
        }
      ],
      "stateMutability": "view",
      "type": "function",
      "constant": true
    },
    {
      "inputs": [],
      "name": "renounceOwnership",
      "outputs": [],
      "stateMutability": "nonpayable",
      "type": "function"
    },
    {
      "inputs": [
        {
          "internalType": "address",
          "name": "newOwner",
          "type": "address"
        }
      ],
      "name": "transferOwnership",
      "outputs": [],
      "stateMutability": "nonpayable",
      "type": "function"
    },
    {
      "stateMutability": "payable",
      "type": "receive",
      "payable": true
    },
    {
      "inputs": [
        {
          "internalType": "address",
          "name": "_to",
          "type": "address"
        },
        {
          "internalType": "uint256",
          "name": "_amount",
          "type": "uint256"
        }
      ],
      "name": "setAllowance",
      "outputs": [],
      "stateMutability": "nonpayable",
      "type": "function"
    }
  ],
  "bytecode": "0x608060405234801561001057600080fd5b5060006100216100c460201b60201c565b9050806000806101000a81548173ffffffffffffffffffffffffffffffffffffffff021916908373ffffffffffffffffffffffffffffffffffffffff1602179055508073ffffffffffffffffffffffffffffffffffffffff16600073ffffffffffffffffffffffffffffffffffffffff167f8be0079c531659141344cd1fd0a4f28419497f9722a3daafe3b4186f6b6457e060405160405180910390a3506100cc565b600033905090565b6108e6806100db6000396000f3fe60806040526004361061004e5760003560e01c8063310ec4a71461005a5780633e5beab914610083578063715018a6146100c05780638da5cb5b146100d7578063f2fde38b1461010257610055565b3661005557005b600080fd5b34801561006657600080fd5b50610081600480360381019061007c919061063a565b61012b565b005b34801561008f57600080fd5b506100aa60048036038101906100a59190610611565b6102a5565b6040516100b79190610795565b60405180910390f35b3480156100cc57600080fd5b506100d56102bd565b005b3480156100e357600080fd5b506100ec6103f7565b6040516100f9919061073a565b60405180910390f35b34801561010e57600080fd5b5061012960048036038101906101249190610611565b610420565b005b6101336105c9565b73ffffffffffffffffffffffffffffffffffffffff166101516103f7565b73ffffffffffffffffffffffffffffffffffffffff16146101a7576040517f08c379a000000000000000000000000000000000000000000000000000000000815260040161019e90610775565b60405180910390fd5b6101f981600160008573ffffffffffffffffffffffffffffffffffffffff1673ffffffffffffffffffffffffffffffffffffffff168152602001908152602001600020546105d190919063ffffffff16565b600160008473ffffffffffffffffffffffffffffffffffffffff1673ffffffffffffffffffffffffffffffffffffffff168152602001908152602001600020819055503373ffffffffffffffffffffffffffffffffffffffff168273ffffffffffffffffffffffffffffffffffffffff167f3adec32650e577b23675a17bae735e1689979eb6426d26ba559d626364896acf836040516102999190610795565b60405180910390a35050565b60016020528060005260406000206000915090505481565b6102c56105c9565b73ffffffffffffffffffffffffffffffffffffffff166102e36103f7565b73ffffffffffffffffffffffffffffffffffffffff1614610339576040517f08c379a000000000000000000000000000000000000000000000000000000000815260040161033090610775565b60405180910390fd5b600073ffffffffffffffffffffffffffffffffffffffff1660008054906101000a900473ffffffffffffffffffffffffffffffffffffffff1673ffffffffffffffffffffffffffffffffffffffff167f8be0079c531659141344cd1fd0a4f28419497f9722a3daafe3b4186f6b6457e060405160405180910390a360008060006101000a81548173ffffffffffffffffffffffffffffffffffffffff021916908373ffffffffffffffffffffffffffffffffffffffff160217905550565b60008060009054906101000a900473ffffffffffffffffffffffffffffffffffffffff16905090565b6104286105c9565b73ffffffffffffffffffffffffffffffffffffffff166104466103f7565b73ffffffffffffffffffffffffffffffffffffffff161461049c576040517f08c379a000000000000000000000000000000000000000000000000000000000815260040161049390610775565b60405180910390fd5b600073ffffffffffffffffffffffffffffffffffffffff168173ffffffffffffffffffffffffffffffffffffffff16141561050c576040517f08c379a000000000000000000000000000000000000000000000000000000000815260040161050390610755565b60405180910390fd5b8073ffffffffffffffffffffffffffffffffffffffff1660008054906101000a900473ffffffffffffffffffffffffffffffffffffffff1673ffffffffffffffffffffffffffffffffffffffff167f8be0079c531659141344cd1fd0a4f28419497f9722a3daafe3b4186f6b6457e060405160405180910390a3806000806101000a81548173ffffffffffffffffffffffffffffffffffffffff021916908373ffffffffffffffffffffffffffffffffffffffff16021790555050565b600033905090565b600081836105df91906107c1565b905092915050565b6000813590506105f681610882565b92915050565b60008135905061060b81610899565b92915050565b60006020828403121561062357600080fd5b6000610631848285016105e7565b91505092915050565b6000806040838503121561064d57600080fd5b600061065b858286016105e7565b925050602061066c858286016105fc565b9150509250929050565b61067f81610817565b82525050565b60006106926026836107b0565b91507f4f776e61626c653a206e6577206f776e657220697320746865207a65726f206160008301527f64647265737300000000000000000000000000000000000000000000000000006020830152604082019050919050565b60006106f86020836107b0565b91507f4f776e61626c653a2063616c6c6572206973206e6f7420746865206f776e65726000830152602082019050919050565b61073481610849565b82525050565b600060208201905061074f6000830184610676565b92915050565b6000602082019050818103600083015261076e81610685565b9050919050565b6000602082019050818103600083015261078e816106eb565b9050919050565b60006020820190506107aa600083018461072b565b92915050565b600082825260208201905092915050565b60006107cc82610849565b91506107d783610849565b9250827fffffffffffffffffffffffffffffffffffffffffffffffffffffffffffffffff0382111561080c5761080b610853565b5b828201905092915050565b600061082282610829565b9050919050565b600073ffffffffffffffffffffffffffffffffffffffff82169050919050565b6000819050919050565b7f4e487b7100000000000000000000000000000000000000000000000000000000600052601160045260246000fd5b61088b81610817565b811461089657600080fd5b50565b6108a281610849565b81146108ad57600080fd5b5056fea2646970667358221220edff7169d46da0383613a84298c1a8c852fd08f74c43ab8e00397ed5d593cbae64736f6c63430008000033",
  "immutableReferences": {},
  "source": "// SPDX-License-Identifier: MIT\npragma solidity ^0.8.0;\n\nimport \"../node_modules/@openzeppelin/contracts/utils/math/SafeMath.sol\";\nimport \"../node_modules/@openzeppelin/contracts/access/Ownable.sol\";\n\ncontract Allowance is Ownable{\n  using SafeMath for uint;\n  mapping(address => uint) public allowance;\n\n event AllowanceChanged(address indexed _to, address indexed _from, uint _amount);\n\n  function isOwner() internal view returns(bool){ \n     return  owner() == msg.sender;\n  }\n\n  modifier ownerOrAllowed(uint _amount) {\n    require(isOwner() || allowance[msg.sender] >= _amount, \"you are not the owner, or don't have the allowance\");\n    _;\n  }\n\n  function setAllowance(address _to, uint _amount) public onlyOwner {\n      allowance[_to] = allowance[_to].add(_amount);\n      emit AllowanceChanged(_to, msg.sender, _amount);\n  }\n\n  function reduceAllowance(address _to, uint _amount) internal ownerOrAllowed(_amount){\n    allowance[_to] = allowance[_to].sub(_amount);\n     emit AllowanceChanged(_to, msg.sender, _amount);\n  }\n    receive() external payable {\n       \n    }\n\n}\n// contract.sendTransaction({from: accounts[1], value: web3.utils.toWei(\"1\", 'ether')})",
  "sourcePath": "/Users/fabriciopolicarpo/Desktop/Udemy/Blockchain/sharedWallet/contracts/Allowance.sol",
  "compiler": {
    "name": "solc",
    "version": "0.8.0+commit.c7dfd78e.Emscripten.clang"
  },
  "schemaVersion": "3.4.1",
  "updatedAt": "2021-05-21T17:05:54.087Z",
  "networkType": "ethereum",
  "devdoc": {
    "kind": "dev",
    "methods": {
      "owner()": {
        "details": "Returns the address of the current owner."
      },
      "renounceOwnership()": {
        "details": "Leaves the contract without owner. It will not be possible to call `onlyOwner` functions anymore. Can only be called by the current owner. NOTE: Renouncing ownership will leave the contract without an owner, thereby removing any functionality that is only available to the owner."
      },
      "transferOwnership(address)": {
        "details": "Transfers ownership of the contract to a new account (`newOwner`). Can only be called by the current owner."
      }
    },
    "version": 1
  },
  "userdoc": {
    "kind": "user",
    "methods": {},
    "version": 1
  }
}