{
  "contractName": "SharedWallet",
  "abi": [
    {
      "anonymous": false,
      "inputs": [
        {
          "indexed": true,
          "internalType": "address",
          "name": "_to",
          "type": "address"
        },
        {
          "indexed": true,
          "internalType": "address",
          "name": "_from",
          "type": "address"
        },
        {
          "indexed": false,
          "internalType": "uint256",
          "name": "_oldAmount",
          "type": "uint256"
        },
        {
          "indexed": false,
          "internalType": "uint256",
          "name": "_newAmount",
          "type": "uint256"
        }
      ],
      "name": "AllowanceChanged",
      "type": "event"
    },
    {
      "anonymous": false,
      "inputs": [
        {
          "indexed": true,
          "internalType": "address",
          "name": "previousOwner",
          "type": "address"
        },
        {
          "indexed": true,
          "internalType": "address",
          "name": "newOwner",
          "type": "address"
        }
      ],
      "name": "OwnershipTransferred",
      "type": "event"
    },
    {
      "inputs": [],
      "name": "owner",
      "outputs": [
        {
          "internalType": "address",
          "name": "",
          "type": "address"
        }
      ],
      "stateMutability": "view",
      "type": "function",
      "constant": true
    },
    {
      "inputs": [],
      "name": "renounceOwnership",
      "outputs": [],
      "stateMutability": "nonpayable",
      "type": "function"
    },
    {
      "inputs": [
        {
          "internalType": "address",
          "name": "newOwner",
          "type": "address"
        }
      ],
      "name": "transferOwnership",
      "outputs": [],
      "stateMutability": "nonpayable",
      "type": "function"
    },
    {
      "inputs": [
        {
          "internalType": "address",
          "name": "",
          "type": "address"
        }
      ],
      "name": "userAllowance",
      "outputs": [
        {
          "internalType": "uint256",
          "name": "totalBalance",
          "type": "uint256"
        }
      ],
      "stateMutability": "view",
      "type": "function",
      "constant": true
    },
    {
      "inputs": [
        {
          "internalType": "address",
          "name": "",
          "type": "address"
        }
      ],
      "name": "userDepositedBalance",
      "outputs": [
        {
          "internalType": "uint256",
          "name": "totalBalance",
          "type": "uint256"
        }
      ],
      "stateMutability": "view",
      "type": "function",
      "constant": true
    },
    {
      "inputs": [],
      "name": "depositFunds",
      "outputs": [],
      "stateMutability": "payable",
      "type": "function",
      "payable": true
    },
    {
      "inputs": [
        {
          "internalType": "address payable",
          "name": "_to",
          "type": "address"
        },
        {
          "internalType": "uint256",
          "name": "_amount",
          "type": "uint256"
        }
      ],
      "name": "userWithdraws",
      "outputs": [],
      "stateMutability": "payable",
      "type": "function",
      "payable": true
    },
    {
      "inputs": [
        {
          "internalType": "address payable",
          "name": "_to",
          "type": "address"
        }
      ],
      "name": "addAllowance",
      "outputs": [],
      "stateMutability": "payable",
      "type": "function",
      "payable": true
    },
    {
      "inputs": [
        {
          "internalType": "address payable",
          "name": "_to",
          "type": "address"
        },
        {
          "internalType": "uint256",
          "name": "_amount",
          "type": "uint256"
        }
      ],
      "name": "withdrawAllowance",
      "outputs": [],
      "stateMutability": "payable",
      "type": "function",
      "payable": true
    }
  ],
  "bytecode": "0x608060405234801561001057600080fd5b5060006100216100c460201b60201c565b9050806000806101000a81548173ffffffffffffffffffffffffffffffffffffffff021916908373ffffffffffffffffffffffffffffffffffffffff1602179055508073ffffffffffffffffffffffffffffffffffffffff16600073ffffffffffffffffffffffffffffffffffffffff167f8be0079c531659141344cd1fd0a4f28419497f9722a3daafe3b4186f6b6457e060405160405180910390a3506100cc565b600033905090565b61118b806100db6000396000f3fe6080604052600436106100865760003560e01c8063e2c41dbc11610059578063e2c41dbc14610126578063e8a3f48d14610130578063e94f12921461016d578063f2fde38b14610189578063f475a7ee146101b257610086565b80630c6b2cbf1461008b57806337b7d0f7146100c8578063715018a6146100e45780638da5cb5b146100fb575b600080fd5b34801561009757600080fd5b506100b260048036038101906100ad9190610ce7565b6101ce565b6040516100bf9190610fb4565b60405180910390f35b6100e260048036038101906100dd9190610d39565b6101ec565b005b3480156100f057600080fd5b506100f961045e565b005b34801561010757600080fd5b50610110610598565b60405161011d9190610ef9565b60405180910390f35b61012e6105c1565b005b34801561013c57600080fd5b5061015760048036038101906101529190610ce7565b6106a1565b6040516101649190610fb4565b60405180910390f35b61018760048036038101906101829190610d10565b6106bf565b005b34801561019557600080fd5b506101b060048036038101906101ab9190610ce7565b610912565b005b6101cc60048036038101906101c79190610d39565b610abb565b005b60026020528060005260406000206000915090508060000154905081565b806101f5610c37565b80610242575080600260003373ffffffffffffffffffffffffffffffffffffffff1673ffffffffffffffffffffffffffffffffffffffff1681526020019081526020016000206000015410155b610281576040517f08c379a000000000000000000000000000000000000000000000000000000000815260040161027890610f94565b60405180910390fd5b6102d682600260008673ffffffffffffffffffffffffffffffffffffffff1673ffffffffffffffffffffffffffffffffffffffff16815260200190815260200160002060000154610c7490919063ffffffff16565b600260008573ffffffffffffffffffffffffffffffffffffffff1673ffffffffffffffffffffffffffffffffffffffff168152602001908152602001600020600001819055508273ffffffffffffffffffffffffffffffffffffffff166108fc839081150290604051600060405180830381858888f19350505050158015610362573d6000803e3d6000fd5b503373ffffffffffffffffffffffffffffffffffffffff168373ffffffffffffffffffffffffffffffffffffffff167f3691d1a86d99355e52b689ca70a7bdf6d80763237a6aa06e5fa43964eac7244b600260008773ffffffffffffffffffffffffffffffffffffffff1673ffffffffffffffffffffffffffffffffffffffff1681526020019081526020016000206000015434600260008973ffffffffffffffffffffffffffffffffffffffff1673ffffffffffffffffffffffffffffffffffffffff16815260200190815260200160002060000154610443919061105f565b604051610451929190610fcf565b60405180910390a3505050565b610466610c8a565b73ffffffffffffffffffffffffffffffffffffffff16610484610598565b73ffffffffffffffffffffffffffffffffffffffff16146104da576040517f08c379a00000000000000000000000000000000000000000000000000000000081526004016104d190610f74565b60405180910390fd5b600073ffffffffffffffffffffffffffffffffffffffff1660008054906101000a900473ffffffffffffffffffffffffffffffffffffffff1673ffffffffffffffffffffffffffffffffffffffff167f8be0079c531659141344cd1fd0a4f28419497f9722a3daafe3b4186f6b6457e060405160405180910390a360008060006101000a81548173ffffffffffffffffffffffffffffffffffffffff021916908373ffffffffffffffffffffffffffffffffffffffff160217905550565b60008060009054906101000a900473ffffffffffffffffffffffffffffffffffffffff16905090565b60003411610604576040517f08c379a00000000000000000000000000000000000000000000000000000000081526004016105fb90610f34565b60405180910390fd5b61065934600160003373ffffffffffffffffffffffffffffffffffffffff1673ffffffffffffffffffffffffffffffffffffffff16815260200190815260200160002060000154610c9290919063ffffffff16565b600160003373ffffffffffffffffffffffffffffffffffffffff1673ffffffffffffffffffffffffffffffffffffffff16815260200190815260200160002060000181905550565b60016020528060005260406000206000915090508060000154905081565b6106c7610c8a565b73ffffffffffffffffffffffffffffffffffffffff166106e5610598565b73ffffffffffffffffffffffffffffffffffffffff161461073b576040517f08c379a000000000000000000000000000000000000000000000000000000000815260040161073290610f74565b60405180910390fd5b6000341161077e576040517f08c379a000000000000000000000000000000000000000000000000000000000815260040161077590610f54565b60405180910390fd5b6107d334600260008473ffffffffffffffffffffffffffffffffffffffff1673ffffffffffffffffffffffffffffffffffffffff16815260200190815260200160002060000154610c9290919063ffffffff16565b600260008373ffffffffffffffffffffffffffffffffffffffff1673ffffffffffffffffffffffffffffffffffffffff168152602001908152602001600020600001819055503373ffffffffffffffffffffffffffffffffffffffff168173ffffffffffffffffffffffffffffffffffffffff167f3691d1a86d99355e52b689ca70a7bdf6d80763237a6aa06e5fa43964eac7244b600260008573ffffffffffffffffffffffffffffffffffffffff1673ffffffffffffffffffffffffffffffffffffffff1681526020019081526020016000206000015434600260008773ffffffffffffffffffffffffffffffffffffffff1673ffffffffffffffffffffffffffffffffffffffff168152602001908152602001600020600001546108f99190611009565b604051610907929190610fcf565b60405180910390a350565b61091a610c8a565b73ffffffffffffffffffffffffffffffffffffffff16610938610598565b73ffffffffffffffffffffffffffffffffffffffff161461098e576040517f08c379a000000000000000000000000000000000000000000000000000000000815260040161098590610f74565b60405180910390fd5b600073ffffffffffffffffffffffffffffffffffffffff168173ffffffffffffffffffffffffffffffffffffffff1614156109fe576040517f08c379a00000000000000000000000000000000000000000000000000000000081526004016109f590610f14565b60405180910390fd5b8073ffffffffffffffffffffffffffffffffffffffff1660008054906101000a900473ffffffffffffffffffffffffffffffffffffffff1673ffffffffffffffffffffffffffffffffffffffff167f8be0079c531659141344cd1fd0a4f28419497f9722a3daafe3b4186f6b6457e060405160405180910390a3806000806101000a81548173ffffffffffffffffffffffffffffffffffffffff021916908373ffffffffffffffffffffffffffffffffffffffff16021790555050565b80610ac4610c37565b80610b11575080600260003373ffffffffffffffffffffffffffffffffffffffff1673ffffffffffffffffffffffffffffffffffffffff1681526020019081526020016000206000015410155b610b50576040517f08c379a0000000000000000000000000000000000000000000000000000000008152600401610b4790610f94565b60405180910390fd5b610ba582600160003373ffffffffffffffffffffffffffffffffffffffff1673ffffffffffffffffffffffffffffffffffffffff16815260200190815260200160002060000154610c7490919063ffffffff16565b600160003373ffffffffffffffffffffffffffffffffffffffff1673ffffffffffffffffffffffffffffffffffffffff168152602001908152602001600020600001819055508273ffffffffffffffffffffffffffffffffffffffff166108fc839081150290604051600060405180830381858888f19350505050158015610c31573d6000803e3d6000fd5b50505050565b60003373ffffffffffffffffffffffffffffffffffffffff16610c58610598565b73ffffffffffffffffffffffffffffffffffffffff1614905090565b60008183610c82919061105f565b905092915050565b600033905090565b60008183610ca09190611009565b905092915050565b600081359050610cb781611110565b92915050565b600081359050610ccc81611127565b92915050565b600081359050610ce18161113e565b92915050565b600060208284031215610cf957600080fd5b6000610d0784828501610ca8565b91505092915050565b600060208284031215610d2257600080fd5b6000610d3084828501610cbd565b91505092915050565b60008060408385031215610d4c57600080fd5b6000610d5a85828601610cbd565b9250506020610d6b85828601610cd2565b9150509250929050565b610d7e81611093565b82525050565b6000610d91602683610ff8565b91507f4f776e61626c653a206e6577206f776e657220697320746865207a65726f206160008301527f64647265737300000000000000000000000000000000000000000000000000006020830152604082019050919050565b6000610df7601c83610ff8565b91507f596f752063616e6e6f74206465706f73697420302062616c616e6365000000006000830152602082019050919050565b6000610e37601983610ff8565b91507f76616c7565206d7573742067726561746572207468616e2030000000000000006000830152602082019050919050565b6000610e77602083610ff8565b91507f4f776e61626c653a2063616c6c6572206973206e6f7420746865206f776e65726000830152602082019050919050565b6000610eb7601383610ff8565b91507f46756e6473206e6f7420617661696c61626c65000000000000000000000000006000830152602082019050919050565b610ef3816110d7565b82525050565b6000602082019050610f0e6000830184610d75565b92915050565b60006020820190508181036000830152610f2d81610d84565b9050919050565b60006020820190508181036000830152610f4d81610dea565b9050919050565b60006020820190508181036000830152610f6d81610e2a565b9050919050565b60006020820190508181036000830152610f8d81610e6a565b9050919050565b60006020820190508181036000830152610fad81610eaa565b9050919050565b6000602082019050610fc96000830184610eea565b92915050565b6000604082019050610fe46000830185610eea565b610ff16020830184610eea565b9392505050565b600082825260208201905092915050565b6000611014826110d7565b915061101f836110d7565b9250827fffffffffffffffffffffffffffffffffffffffffffffffffffffffffffffffff03821115611054576110536110e1565b5b828201905092915050565b600061106a826110d7565b9150611075836110d7565b925082821015611088576110876110e1565b5b828203905092915050565b600061109e826110b7565b9050919050565b60006110b0826110b7565b9050919050565b600073ffffffffffffffffffffffffffffffffffffffff82169050919050565b6000819050919050565b7f4e487b7100000000000000000000000000000000000000000000000000000000600052601160045260246000fd5b61111981611093565b811461112457600080fd5b50565b611130816110a5565b811461113b57600080fd5b50565b611147816110d7565b811461115257600080fd5b5056fea26469706673582212206513f249eae62f85b656dba04d945540f3655c04559bfcd323172b3574dc0c8964736f6c63430008000033",
  "immutableReferences": {},
  "source": "\n// SPDX-License-Identifier: MIT\npragma solidity ^0.8.0;\n\nimport \"../node_modules/@openzeppelin/contracts/utils/math/SafeMath.sol\";\nimport \"../node_modules/@openzeppelin/contracts/access/Ownable.sol\";\n\n// node_modules/@openzeppelin/contracts/utils/math/SafeMath.sol\n\n// /Users/fabriciopolicarpo/Desktop/Udemy/Blockchain/sharedWallet/node_modules/@openzeppelin/contracts/access/Ownable.sol\n\n\n\n\n\n\n\ncontract SharedWallet is Ownable{\n  using SafeMath for uint;\n\n  struct Balance{\n    uint totalBalance;\n  }\n   event AllowanceChanged(address indexed _to, address indexed _from, uint _oldAmount, uint _newAmount);\n\n  \n  mapping(address => Balance) public userDepositedBalance;\n  \n  mapping(address => Balance) public userAllowance;\n  \n  function isOwner() internal view returns(bool) {\n        return owner() == msg.sender;\n    }\n\n  function depositFunds() public payable {\n      require(msg.value > 0, \"You cannot deposit 0 balance\");\n      userDepositedBalance[msg.sender].totalBalance = userDepositedBalance[msg.sender].totalBalance.add(msg.value);\n  }\n  \n  function userWithdraws(address payable _to, uint _amount) public payable ownerOrAllowed(_amount){\n      userDepositedBalance[msg.sender].totalBalance = userDepositedBalance[msg.sender].totalBalance.sub(_amount);\n      _to.transfer(_amount);\n        \n  } \n  \n  function addAllowance(address payable _to) public payable onlyOwner{\n      require(msg.value > 0, \"value must greater than 0\");\n      userAllowance[_to].totalBalance = userAllowance[_to].totalBalance.add(msg.value);\n      emit AllowanceChanged(_to, msg.sender, userAllowance[_to].totalBalance, userAllowance[_to].totalBalance + msg.value);\n  }\n \n\n  \n  modifier ownerOrAllowed(uint _amount){\n      require(isOwner() || userAllowance[msg.sender].totalBalance >= _amount, \"Funds not available\");\n      _;\n  }\n  \n  \n  function withdrawAllowance(address payable _to, uint _amount) public payable ownerOrAllowed(_amount){\n      userAllowance[_to].totalBalance = userAllowance[_to].totalBalance.sub(_amount);\n      _to.transfer(_amount);\n      emit AllowanceChanged(_to, msg.sender, userAllowance[_to].totalBalance, userAllowance[_to].totalBalance - msg.value);\n  }\n  \n  \n \n  \n  \n  \n  \n\n}",
  "sourcePath": "/Users/fabriciopolicarpo/Desktop/Udemy/Blockchain/sharedWallet/contracts/SharedWallet.sol",
  "compiler": {
    "name": "solc",
    "version": "0.8.0+commit.c7dfd78e.Emscripten.clang"
  },
  "schemaVersion": "3.4.1",
  "updatedAt": "2021-05-21T17:05:53.842Z",
  "networkType": "ethereum",
  "devdoc": {
    "kind": "dev",
    "methods": {
      "owner()": {
        "details": "Returns the address of the current owner."
      },
      "renounceOwnership()": {
        "details": "Leaves the contract without owner. It will not be possible to call `onlyOwner` functions anymore. Can only be called by the current owner. NOTE: Renouncing ownership will leave the contract without an owner, thereby removing any functionality that is only available to the owner."
      },
      "transferOwnership(address)": {
        "details": "Transfers ownership of the contract to a new account (`newOwner`). Can only be called by the current owner."
      }
    },
    "version": 1
  },
  "userdoc": {
    "kind": "user",
    "methods": {},
    "version": 1
  }
}