{
  "contractName": "Wallet",
  "abi": [
    {
      "anonymous": false,
      "inputs": [
        {
          "indexed": true,
          "internalType": "address",
          "name": "_to",
          "type": "address"
        },
        {
          "indexed": true,
          "internalType": "address",
          "name": "_from",
          "type": "address"
        },
        {
          "indexed": false,
          "internalType": "uint256",
          "name": "_currentAmount",
          "type": "uint256"
        },
        {
          "indexed": false,
          "internalType": "uint256",
          "name": "_amount",
          "type": "uint256"
        }
      ],
      "name": "AllowanceChanged",
      "type": "event"
    },
    {
      "anonymous": false,
      "inputs": [
        {
          "indexed": true,
          "internalType": "address",
          "name": "_from",
          "type": "address"
        },
        {
          "indexed": false,
          "internalType": "uint256",
          "name": "_amount",
          "type": "uint256"
        }
      ],
      "name": "MoneyReceived",
      "type": "event"
    },
    {
      "anonymous": false,
      "inputs": [
        {
          "indexed": true,
          "internalType": "address",
          "name": "_beneficiary",
          "type": "address"
        },
        {
          "indexed": false,
          "internalType": "uint256",
          "name": "_amount",
          "type": "uint256"
        }
      ],
      "name": "MoneySent",
      "type": "event"
    },
    {
      "anonymous": false,
      "inputs": [
        {
          "indexed": true,
          "internalType": "address",
          "name": "previousOwner",
          "type": "address"
        },
        {
          "indexed": true,
          "internalType": "address",
          "name": "newOwner",
          "type": "address"
        }
      ],
      "name": "OwnershipTransferred",
      "type": "event"
    },
    {
      "inputs": [
        {
          "internalType": "address",
          "name": "",
          "type": "address"
        }
      ],
      "name": "allowance",
      "outputs": [
        {
          "internalType": "uint256",
          "name": "",
          "type": "uint256"
        }
      ],
      "stateMutability": "view",
      "type": "function",
      "constant": true
    },
    {
      "inputs": [],
      "name": "owner",
      "outputs": [
        {
          "internalType": "address",
          "name": "",
          "type": "address"
        }
      ],
      "stateMutability": "view",
      "type": "function",
      "constant": true
    },
    {
      "inputs": [],
      "name": "renounceOwnership",
      "outputs": [],
      "stateMutability": "nonpayable",
      "type": "function"
    },
    {
      "inputs": [
        {
          "internalType": "address",
          "name": "_to",
          "type": "address"
        },
        {
          "internalType": "uint256",
          "name": "_amount",
          "type": "uint256"
        }
      ],
      "name": "setAllowance",
      "outputs": [],
      "stateMutability": "nonpayable",
      "type": "function"
    },
    {
      "inputs": [
        {
          "internalType": "address",
          "name": "newOwner",
          "type": "address"
        }
      ],
      "name": "transferOwnership",
      "outputs": [],
      "stateMutability": "nonpayable",
      "type": "function"
    },
    {
      "stateMutability": "payable",
      "type": "receive",
      "payable": true
    },
    {
      "inputs": [
        {
          "internalType": "address payable",
          "name": "_to",
          "type": "address"
        },
        {
          "internalType": "uint256",
          "name": "_amount",
          "type": "uint256"
        }
      ],
      "name": "withdrawFunds",
      "outputs": [],
      "stateMutability": "nonpayable",
      "type": "function"
    }
  ],
  "bytecode": "0x608060405234801561001057600080fd5b5060006100216100c460201b60201c565b9050806000806101000a81548173ffffffffffffffffffffffffffffffffffffffff021916908373ffffffffffffffffffffffffffffffffffffffff1602179055508073ffffffffffffffffffffffffffffffffffffffff16600073ffffffffffffffffffffffffffffffffffffffff167f8be0079c531659141344cd1fd0a4f28419497f9722a3daafe3b4186f6b6457e060405160405180910390a3506100cc565b600033905090565b610f1d806100db6000396000f3fe6080604052600436106100595760003560e01c8063310ec4a7146100b35780633e5beab9146100dc578063715018a6146101195780638da5cb5b14610130578063c10753291461015b578063f2fde38b14610184576100ae565b366100ae573373ffffffffffffffffffffffffffffffffffffffff167f27b15ed4cf832749ed39f33a64e4707ed60a761485e41ffec7343ecaddc0c02a346040516100a49190610d46565b60405180910390a2005b600080fd5b3480156100bf57600080fd5b506100da60048036038101906100d59190610b05565b6101ad565b005b3480156100e857600080fd5b5061010360048036038101906100fe9190610aa0565b61036e565b6040516101109190610d46565b60405180910390f35b34801561012557600080fd5b5061012e610386565b005b34801561013c57600080fd5b506101456104c0565b6040516101529190610cab565b60405180910390f35b34801561016757600080fd5b50610182600480360381019061017d9190610ac9565b6104e9565b005b34801561019057600080fd5b506101ab60048036038101906101a69190610aa0565b61066f565b005b6101b5610818565b73ffffffffffffffffffffffffffffffffffffffff166101d36104c0565b73ffffffffffffffffffffffffffffffffffffffff1614610229576040517f08c379a000000000000000000000000000000000000000000000000000000000815260040161022090610ce6565b60405180910390fd5b6000600160008473ffffffffffffffffffffffffffffffffffffffff1673ffffffffffffffffffffffffffffffffffffffff1681526020019081526020016000205490506102bf82600160008673ffffffffffffffffffffffffffffffffffffffff1673ffffffffffffffffffffffffffffffffffffffff1681526020019081526020016000205461082090919063ffffffff16565b600160008573ffffffffffffffffffffffffffffffffffffffff1673ffffffffffffffffffffffffffffffffffffffff168152602001908152602001600020819055503373ffffffffffffffffffffffffffffffffffffffff168373ffffffffffffffffffffffffffffffffffffffff167f3691d1a86d99355e52b689ca70a7bdf6d80763237a6aa06e5fa43964eac7244b8385604051610361929190610d61565b60405180910390a3505050565b60016020528060005260406000206000915090505481565b61038e610818565b73ffffffffffffffffffffffffffffffffffffffff166103ac6104c0565b73ffffffffffffffffffffffffffffffffffffffff1614610402576040517f08c379a00000000000000000000000000000000000000000000000000000000081526004016103f990610ce6565b60405180910390fd5b600073ffffffffffffffffffffffffffffffffffffffff1660008054906101000a900473ffffffffffffffffffffffffffffffffffffffff1673ffffffffffffffffffffffffffffffffffffffff167f8be0079c531659141344cd1fd0a4f28419497f9722a3daafe3b4186f6b6457e060405160405180910390a360008060006101000a81548173ffffffffffffffffffffffffffffffffffffffff021916908373ffffffffffffffffffffffffffffffffffffffff160217905550565b60008060009054906101000a900473ffffffffffffffffffffffffffffffffffffffff16905090565b806104f2610836565b8061053c575080600160003373ffffffffffffffffffffffffffffffffffffffff1673ffffffffffffffffffffffffffffffffffffffff1681526020019081526020016000205410155b61057b576040517f08c379a000000000000000000000000000000000000000000000000000000000815260040161057290610d06565b60405180910390fd5b814710156105be576040517f08c379a00000000000000000000000000000000000000000000000000000000081526004016105b590610d26565b60405180910390fd5b6105c6610836565b6105d5576105d43383610873565b5b8273ffffffffffffffffffffffffffffffffffffffff167f7f51d406915971d4ac1c91af96be5187ea6ab64753785aad519a533def80a41e8360405161061b9190610d46565b60405180910390a28273ffffffffffffffffffffffffffffffffffffffff166108fc839081150290604051600060405180830381858888f19350505050158015610669573d6000803e3d6000fd5b50505050565b610677610818565b73ffffffffffffffffffffffffffffffffffffffff166106956104c0565b73ffffffffffffffffffffffffffffffffffffffff16146106eb576040517f08c379a00000000000000000000000000000000000000000000000000000000081526004016106e290610ce6565b60405180910390fd5b600073ffffffffffffffffffffffffffffffffffffffff168173ffffffffffffffffffffffffffffffffffffffff16141561075b576040517f08c379a000000000000000000000000000000000000000000000000000000000815260040161075290610cc6565b60405180910390fd5b8073ffffffffffffffffffffffffffffffffffffffff1660008054906101000a900473ffffffffffffffffffffffffffffffffffffffff1673ffffffffffffffffffffffffffffffffffffffff167f8be0079c531659141344cd1fd0a4f28419497f9722a3daafe3b4186f6b6457e060405160405180910390a3806000806101000a81548173ffffffffffffffffffffffffffffffffffffffff021916908373ffffffffffffffffffffffffffffffffffffffff16021790555050565b600033905090565b6000818361082e9190610d9b565b905092915050565b60003373ffffffffffffffffffffffffffffffffffffffff166108576104c0565b73ffffffffffffffffffffffffffffffffffffffff1614905090565b8061087c610836565b806108c6575080600160003373ffffffffffffffffffffffffffffffffffffffff1673ffffffffffffffffffffffffffffffffffffffff1681526020019081526020016000205410155b610905576040517f08c379a00000000000000000000000000000000000000000000000000000000081526004016108fc90610d06565b60405180910390fd5b6000600160008573ffffffffffffffffffffffffffffffffffffffff1673ffffffffffffffffffffffffffffffffffffffff16815260200190815260200160002054905061099b83600160008773ffffffffffffffffffffffffffffffffffffffff1673ffffffffffffffffffffffffffffffffffffffff16815260200190815260200160002054610a4b90919063ffffffff16565b600160008673ffffffffffffffffffffffffffffffffffffffff1673ffffffffffffffffffffffffffffffffffffffff168152602001908152602001600020819055503373ffffffffffffffffffffffffffffffffffffffff168473ffffffffffffffffffffffffffffffffffffffff167f3691d1a86d99355e52b689ca70a7bdf6d80763237a6aa06e5fa43964eac7244b8386604051610a3d929190610d61565b60405180910390a350505050565b60008183610a599190610df1565b905092915050565b600081359050610a7081610ea2565b92915050565b600081359050610a8581610eb9565b92915050565b600081359050610a9a81610ed0565b92915050565b600060208284031215610ab257600080fd5b6000610ac084828501610a61565b91505092915050565b60008060408385031215610adc57600080fd5b6000610aea85828601610a76565b9250506020610afb85828601610a8b565b9150509250929050565b60008060408385031215610b1857600080fd5b6000610b2685828601610a61565b9250506020610b3785828601610a8b565b9150509250929050565b610b4a81610e25565b82525050565b6000610b5d602683610d8a565b91507f4f776e61626c653a206e6577206f776e657220697320746865207a65726f206160008301527f64647265737300000000000000000000000000000000000000000000000000006020830152604082019050919050565b6000610bc3602083610d8a565b91507f4f776e61626c653a2063616c6c6572206973206e6f7420746865206f776e65726000830152602082019050919050565b6000610c03603283610d8a565b91507f796f7520617265206e6f7420746865206f776e65722c206f7220646f6e27742060008301527f686176652074686520616c6c6f77616e636500000000000000000000000000006020830152604082019050919050565b6000610c69601983610d8a565b91507f436f6e747261637420686173206e6f206c6971756964697479000000000000006000830152602082019050919050565b610ca581610e69565b82525050565b6000602082019050610cc06000830184610b41565b92915050565b60006020820190508181036000830152610cdf81610b50565b9050919050565b60006020820190508181036000830152610cff81610bb6565b9050919050565b60006020820190508181036000830152610d1f81610bf6565b9050919050565b60006020820190508181036000830152610d3f81610c5c565b9050919050565b6000602082019050610d5b6000830184610c9c565b92915050565b6000604082019050610d766000830185610c9c565b610d836020830184610c9c565b9392505050565b600082825260208201905092915050565b6000610da682610e69565b9150610db183610e69565b9250827fffffffffffffffffffffffffffffffffffffffffffffffffffffffffffffffff03821115610de657610de5610e73565b5b828201905092915050565b6000610dfc82610e69565b9150610e0783610e69565b925082821015610e1a57610e19610e73565b5b828203905092915050565b6000610e3082610e49565b9050919050565b6000610e4282610e49565b9050919050565b600073ffffffffffffffffffffffffffffffffffffffff82169050919050565b6000819050919050565b7f4e487b7100000000000000000000000000000000000000000000000000000000600052601160045260246000fd5b610eab81610e25565b8114610eb657600080fd5b50565b610ec281610e37565b8114610ecd57600080fd5b50565b610ed981610e69565b8114610ee457600080fd5b5056fea26469706673582212206315a7a319ce2c9f61534d356995fbfe46300478b62148e0671e5a09842accb564736f6c63430008000033",
  "immutableReferences": {},
  "source": "// SPDX-License-Identifier: MIT\npragma solidity ^0.8.0;\nimport \"../node_modules/@openzeppelin/contracts/utils/math/SafeMath.sol\";\nimport \"../node_modules/@openzeppelin/contracts/access/Ownable.sol\";\nimport \"./Allowance.sol\";\n\ncontract Wallet is Allowance{\n  \n    event MoneySent(address indexed _beneficiary, uint _amount);\n    event MoneyReceived(address indexed _from, uint _amount);\n\n    function withdrawFunds(address payable _to, uint _amount) public ownerOrAllowed(_amount){\n      require(address(this).balance >= _amount, \"Contract has no liquidity\");\n      if(!isOwner()){\n        reduceAllowance(msg.sender, _amount);\n      }\n      emit MoneySent(_to, _amount);\n      _to.transfer(_amount);\n    }\n\n\n    receive() external payable {\n       emit MoneyReceived(msg.sender, msg.value);\n    }\n}",
  "sourcePath": "/Users/fabriciopolicarpo/Desktop/Udemy/Blockchain/sharedWallet/contracts/Wallet.sol",
  "compiler": {
    "name": "solc",
    "version": "0.8.0+commit.c7dfd78e.Emscripten.clang"
  },
  "schemaVersion": "3.4.1",
  "updatedAt": "2021-05-22T03:41:41.812Z",
  "networkType": "ethereum",
  "devdoc": {
    "kind": "dev",
    "methods": {
      "owner()": {
        "details": "Returns the address of the current owner."
      },
      "renounceOwnership()": {
        "details": "Leaves the contract without owner. It will not be possible to call `onlyOwner` functions anymore. Can only be called by the current owner. NOTE: Renouncing ownership will leave the contract without an owner, thereby removing any functionality that is only available to the owner."
      },
      "transferOwnership(address)": {
        "details": "Transfers ownership of the contract to a new account (`newOwner`). Can only be called by the current owner."
      }
    },
    "version": 1
  },
  "userdoc": {
    "kind": "user",
    "methods": {},
    "version": 1
  }
}